{
  "_format": "hh-sol-artifact-1",
  "contractName": "sendEther",
  "sourceName": "contracts/index.sol",
  "abi": [
    {
      "inputs": [],
      "name": "balanceOf",
      "outputs": [
        {
          "internalType": "uint256",
          "name": "",
          "type": "uint256"
        }
      ],
      "stateMutability": "view",
      "type": "function"
    },
    {
      "inputs": [
        {
          "internalType": "address payable",
          "name": "_to",
          "type": "address"
        }
      ],
      "name": "sendViaTransfer",
      "outputs": [],
      "stateMutability": "payable",
      "type": "function"
    }
  ],
  "bytecode": "0x608060405234801561001057600080fd5b506101b8806100206000396000f3fe6080604052600436106100295760003560e01c8063636e082b1461002e578063722713f71461004a575b600080fd5b610048600480360381019061004391906100dc565b610075565b005b34801561005657600080fd5b5061005f6100bf565b60405161006c9190610114565b60405180910390f35b8073ffffffffffffffffffffffffffffffffffffffff166108fc349081150290604051600060405180830381858888f193505050501580156100bb573d6000803e3d6000fd5b5050565b600047905090565b6000813590506100d68161016b565b92915050565b6000602082840312156100ee57600080fd5b60006100fc848285016100c7565b91505092915050565b61010e81610161565b82525050565b60006020820190506101296000830184610105565b92915050565b600061013a82610141565b9050919050565b600073ffffffffffffffffffffffffffffffffffffffff82169050919050565b6000819050919050565b6101748161012f565b811461017f57600080fd5b5056fea264697066735822122054dbebbe559e454a56fd780b684f17277b1f57cfa4930663765238b6c9778d5264736f6c63430008040033",
  "linkReferences": {},
  "deployedLinkReferences": {}
}