{
  "_format": "hh-sol-artifact-1",
  "contractName": "smartBirthday",
  "sourceName": "contracts/index.sol",
  "abi": [
    {
      "anonymous": false,
      "inputs": [
        {
          "indexed": true,
          "internalType": "address",
          "name": "from",
          "type": "address"
        },
        {
          "indexed": false,
          "internalType": "uint256",
          "name": "timestamp",
          "type": "uint256"
        },
        {
          "indexed": false,
          "internalType": "string",
          "name": "message",
          "type": "string"
        }
      ],
      "name": "NewMessage",
      "type": "event"
    },
    {
      "inputs": [],
      "name": "balanceOf",
      "outputs": [
        {
          "internalType": "uint256",
          "name": "",
          "type": "uint256"
        }
      ],
      "stateMutability": "view",
      "type": "function"
    },
    {
      "inputs": [],
      "name": "getAllMessages",
      "outputs": [
        {
          "components": [
            {
              "internalType": "address",
              "name": "user",
              "type": "address"
            },
            {
              "internalType": "string",
              "name": "message",
              "type": "string"
            },
            {
              "internalType": "uint256",
              "name": "timestamp",
              "type": "uint256"
            }
          ],
          "internalType": "struct smartBirthday.Messages[]",
          "name": "",
          "type": "tuple[]"
        }
      ],
      "stateMutability": "view",
      "type": "function"
    },
    {
      "inputs": [],
      "name": "getTotalMessages",
      "outputs": [
        {
          "internalType": "uint256",
          "name": "",
          "type": "uint256"
        }
      ],
      "stateMutability": "view",
      "type": "function"
    },
    {
      "inputs": [
        {
          "internalType": "uint256",
          "name": "",
          "type": "uint256"
        }
      ],
      "name": "message",
      "outputs": [
        {
          "internalType": "address",
          "name": "user",
          "type": "address"
        },
        {
          "internalType": "string",
          "name": "message",
          "type": "string"
        },
        {
          "internalType": "uint256",
          "name": "timestamp",
          "type": "uint256"
        }
      ],
      "stateMutability": "view",
      "type": "function"
    },
    {
      "inputs": [
        {
          "internalType": "address payable",
          "name": "_to",
          "type": "address"
        }
      ],
      "name": "sendGift",
      "outputs": [],
      "stateMutability": "payable",
      "type": "function"
    },
    {
      "inputs": [
        {
          "internalType": "string",
          "name": "_msg",
          "type": "string"
        }
      ],
      "name": "sendMessage",
      "outputs": [],
      "stateMutability": "nonpayable",
      "type": "function"
    }
  ],
  "bytecode": "0x608060405234801561001057600080fd5b50610e68806100206000396000f3fe6080604052600436106100555760003560e01c8063147e91081461005a578063469c81101461008557806353f5e380146100ae578063722713f7146100d9578063d1e8507b14610104578063de2e613614610143575b600080fd5b34801561006657600080fd5b5061006f61015f565b60405161007c9190610b16565b60405180910390f35b34801561009157600080fd5b506100ac60048036038101906100a79190610865565b6101aa565b005b3480156100ba57600080fd5b506100c3610321565b6040516100d09190610ac4565b60405180910390f35b3480156100e557600080fd5b506100ee610472565b6040516100fb9190610b16565b60405180910390f35b34801561011057600080fd5b5061012b600480360381019061012691906108a6565b61047a565b60405161013a93929190610a86565b60405180910390f35b61015d6004803603810190610158919061083c565b61055c565b005b60006101a26040518060400160405280602081526020017f546f74616c204269727468646179204d6573736167657320526563697665643a8152506001546105a6565b600154905090565b60018060008282546101bc9190610c1d565b92505081905550600260405180606001604052803373ffffffffffffffffffffffffffffffffffffffff16815260200183815260200142815250908060018154018082558091505060019003906000526020600020906003020160009091909190915060008201518160000160006101000a81548173ffffffffffffffffffffffffffffffffffffffff021916908373ffffffffffffffffffffffffffffffffffffffff1602179055506020820151816001019080519060200190610282929190610707565b506040820151816002015550503373ffffffffffffffffffffffffffffffffffffffff167f0ff94fec3112de81726d79117e091c7c9d47da8a38c73e8cec7ee350a61898a642836040516102d7929190610b31565b60405180910390a261031e336040518060400160405280601d81526020017f206a7573742073656e742061206269727468646179206d657373616765000000815250610642565b50565b60606002805480602002602001604051908101604052809291908181526020016000905b8282101561046957838290600052602060002090600302016040518060600160405290816000820160009054906101000a900473ffffffffffffffffffffffffffffffffffffffff1673ffffffffffffffffffffffffffffffffffffffff1673ffffffffffffffffffffffffffffffffffffffff1681526020016001820180546103ce90610d03565b80601f01602080910402602001604051908101604052809291908181526020018280546103fa90610d03565b80156104475780601f1061041c57610100808354040283529160200191610447565b820191906000526020600020905b81548152906001019060200180831161042a57829003601f168201915b5050505050815260200160028201548152505081526020019060010190610345565b50505050905090565b600047905090565b6002818154811061048a57600080fd5b90600052602060002090600302016000915090508060000160009054906101000a900473ffffffffffffffffffffffffffffffffffffffff16908060010180546104d390610d03565b80601f01602080910402602001604051908101604052809291908181526020018280546104ff90610d03565b801561054c5780601f106105215761010080835404028352916020019161054c565b820191906000526020600020905b81548152906001019060200180831161052f57829003601f168201915b5050505050908060020154905083565b8073ffffffffffffffffffffffffffffffffffffffff166108fc349081150290604051600060405180830381858888f193505050501580156105a2573d6000803e3d6000fd5b5050565b61063e82826040516024016105bc929190610ae6565b6040516020818303038152906040527f9710a9d0000000000000000000000000000000000000000000000000000000007bffffffffffffffffffffffffffffffffffffffffffffffffffffffff19166020820180517bffffffffffffffffffffffffffffffffffffffffffffffffffffffff83818316178352505050506106de565b5050565b6106da8282604051602401610658929190610a56565b6040516020818303038152906040527f759f86bb000000000000000000000000000000000000000000000000000000007bffffffffffffffffffffffffffffffffffffffffffffffffffffffff19166020820180517bffffffffffffffffffffffffffffffffffffffffffffffffffffffff83818316178352505050506106de565b5050565b60008151905060006a636f6e736f6c652e6c6f679050602083016000808483855afa5050505050565b82805461071390610d03565b90600052602060002090601f016020900481019282610735576000855561077c565b82601f1061074e57805160ff191683800117855561077c565b8280016001018555821561077c579182015b8281111561077b578251825591602001919060010190610760565b5b509050610789919061078d565b5090565b5b808211156107a657600081600090555060010161078e565b5090565b60006107bd6107b884610b86565b610b61565b9050828152602081018484840111156107d557600080fd5b6107e0848285610cc1565b509392505050565b6000813590506107f781610e04565b92915050565b600082601f83011261080e57600080fd5b813561081e8482602086016107aa565b91505092915050565b60008135905061083681610e1b565b92915050565b60006020828403121561084e57600080fd5b600061085c848285016107e8565b91505092915050565b60006020828403121561087757600080fd5b600082013567ffffffffffffffff81111561089157600080fd5b61089d848285016107fd565b91505092915050565b6000602082840312156108b857600080fd5b60006108c684828501610827565b91505092915050565b60006108db83836109e8565b905092915050565b6108ec81610c73565b82525050565b6108fb81610c73565b82525050565b600061090c82610bc7565b6109168185610bea565b93508360208202850161092885610bb7565b8060005b85811015610964578484038952815161094585826108cf565b945061095083610bdd565b925060208a0199505060018101905061092c565b50829750879550505050505092915050565b600061098182610bd2565b61098b8185610bfb565b935061099b818560208601610cd0565b6109a481610df3565b840191505092915050565b60006109ba82610bd2565b6109c48185610c0c565b93506109d4818560208601610cd0565b6109dd81610df3565b840191505092915050565b6000606083016000830151610a0060008601826108e3565b5060208301518482036020860152610a188282610976565b9150506040830151610a2d6040860182610a38565b508091505092915050565b610a4181610cb7565b82525050565b610a5081610cb7565b82525050565b6000604082019050610a6b60008301856108f2565b8181036020830152610a7d81846109af565b90509392505050565b6000606082019050610a9b60008301866108f2565b8181036020830152610aad81856109af565b9050610abc6040830184610a47565b949350505050565b60006020820190508181036000830152610ade8184610901565b905092915050565b60006040820190508181036000830152610b0081856109af565b9050610b0f6020830184610a47565b9392505050565b6000602082019050610b2b6000830184610a47565b92915050565b6000604082019050610b466000830185610a47565b8181036020830152610b5881846109af565b90509392505050565b6000610b6b610b7c565b9050610b778282610d35565b919050565b6000604051905090565b600067ffffffffffffffff821115610ba157610ba0610dc4565b5b610baa82610df3565b9050602081019050919050565b6000819050602082019050919050565b600081519050919050565b600081519050919050565b6000602082019050919050565b600082825260208201905092915050565b600082825260208201905092915050565b600082825260208201905092915050565b6000610c2882610cb7565b9150610c3383610cb7565b9250827fffffffffffffffffffffffffffffffffffffffffffffffffffffffffffffffff03821115610c6857610c67610d66565b5b828201905092915050565b6000610c7e82610c97565b9050919050565b6000610c9082610c97565b9050919050565b600073ffffffffffffffffffffffffffffffffffffffff82169050919050565b6000819050919050565b82818337600083830152505050565b60005b83811015610cee578082015181840152602081019050610cd3565b83811115610cfd576000848401525b50505050565b60006002820490506001821680610d1b57607f821691505b60208210811415610d2f57610d2e610d95565b5b50919050565b610d3e82610df3565b810181811067ffffffffffffffff82111715610d5d57610d5c610dc4565b5b80604052505050565b7f4e487b7100000000000000000000000000000000000000000000000000000000600052601160045260246000fd5b7f4e487b7100000000000000000000000000000000000000000000000000000000600052602260045260246000fd5b7f4e487b7100000000000000000000000000000000000000000000000000000000600052604160045260246000fd5b6000601f19601f8301169050919050565b610e0d81610c85565b8114610e1857600080fd5b50565b610e2481610cb7565b8114610e2f57600080fd5b5056fea2646970667358221220f0be6a71a8aa589dfee2092cf35ae8d7a7ae74c949c668624dcf6013623795c264736f6c63430008040033",
  "linkReferences": {},
  "deployedLinkReferences": {}
}